:020000040800F2
:10000000E806002089010008290A0008D109000833
:10001000250A00080B0600088713000800000000EE
:100020000000000000000000000000007D0C00083F
:1000300063060008000000002D0B0008690D000891
:10004000A3010008A3010008A3010008A301000800
:10005000A3010008A3010008A3010008A3010008F0
:10006000A3010008650600087F060008A301000838
:10007000A3010008A3010008A3010008A3010008D0
:10008000A3010008A3010008A3010008A3010008C0
:10009000A3010008A3010008A301000899060008B5
:1000A000A3010008A3010008A3010008A3010008A0
:1000B000750E0008A3010008A3010008A3010008B1
:1000C000A3010008A3010008A3010008A301000880
:1000D000A3010008A301000899110008A30100086A
:1000E000A3010008A3010008A301000800F002F822
:1000F00000F03AF80AA090E8000C82448344AAF188
:100100000107DA4501D100F02FF8AFF2090EBAE885
:100110000F0013F0010F18BFFB1A43F0010318473B
:10012000D41A0000F41A0000103A24BF78C878C12D
:10013000FAD8520724BF30C830C144BF04680C60ED
:10014000704700000023002400250026103A28BF35
:1001500078C1FBD8520728BF30C148BF0B60704739
:100160001FB51FBD10B510BD00F0B8F81146FFF760
:10017000F7FF01F015FA00F0EAF803B4FFF7F2FF19
:1001800003BC01F002F90000094880470948004714
:10019000FEE7FEE7FEE7FEE7FEE7FEE7FEE7FEE737
:1001A000FEE7FEE704480549054A064B7047000094
:1001B000150E0008ED000008E8000020E806002009
:1001C000E8020020E8020020704700000FB4044954
:1001D00010B503AA029800F02BF810BC5DF814FBD0
:1001E000300000204FF000020429C0F0128010F00F
:1001F000030C00F03180CCF1040CBCF1020F18BFED
:1002000000F8012BA8BF20F8022BA1EB0C0100F095
:1002100023B85FEAC17C24BF00F8012B00F8012B52
:1002200048BF00F8012B7047704770477047704710
:10023000074B70B50D467B4400F039F8044628465C
:1002400000F048F810B14FF0FF3070BD204670BD8F
:10025000231200004FF0000200B513469446964664
:10026000203922BFA0E80C50A0E80C50B1F12001C9
:10027000BFF4F7AF090728BFA0E80C5048BF0CC077
:100280005DF804EB890028BF40F8042B08BF7047D5
:1002900048BF20F8022B11F0804F18BF00F8012B47
:1002A0007047000001694A1C02610878704700B578
:1002B0008FB0CDE901310021059105497944CDE99F
:1002C00003101146684600F02EF80FB000BD000084
:1002D000E5FFFFFF007B00F080007047754600F0EF
:1002E0003FF8AE4605006946534620F007008546B4
:1002F00018B020B5FFF756FFBDE820404FF00006CC
:100300004FF000074FF000084FF0000B21F00701FD
:10031000AC46ACE8C009ACE8C009ACE8C009ACE840
:10032000C0098D4670472DE9F04106460024D6E904
:100330000170F5688046304603E04146B847641CCA
:100340003046A8470028F8D12046BDE8F08110B516
:100350000446AFF300802046BDE81040FFF70DBF14
:10036000004870478400002000B591B00121480288
:1003700000F00AFC0121042000F006FC01210846DF
:1003800000F0E2FB4FF4004000F0D2FB00208DF8BB
:1003900043003820ADF8400003208DF8420010A93A
:1003A000344800F00BFA052301220321324800F003
:1003B000BBF80523022204212F4800F0B5F80523DD
:1003C000032219462C4800F0AFF800200B900E9045
:1003D0004FF460200D9000208DF8310001208DF841
:1003E000300003208DF83C000BA9234800F074F87E
:1003F00021484C30009080150690002004901F4842
:1004000001904FF4806007908020059000200290BA
:10041000032003902020089000200A904FF4805081
:1004200009906946164800F0FEF80121144800F0D2
:10043000EEF80121104800F030F801210E4800F0DC
:1004400021F80D4800F0CCF800BF0B4800F03AF856
:100450000128FAD0084800F0D3F800BF064800F0A1
:1004600027F80128FAD00121034800F0BEF811B0A6
:1004700000BD0000000801400024014034000020BD
:100480000800024021B1826842F00102826003E06C
:10049000826822F001028260704721B1826842F4D2
:1004A0008072826003E0826822F48072826070470A
:1004B000014600208A6802F004020AB1012000E02F
:1004C00000207047014600208A6802F008020AB145
:1004D000012000E00020704730B5024600200023D4
:1004E00050680F4C20400D790C6844EA05242043E5
:1004F000506090680B4C2040D1E902542C434D7958
:1005000044EA450420439060D06A20F470000C7CDB
:10051000641EE4B2234340EA0350D06230BD0000C1
:10052000FFFEF0FFFDF7F1FFF0B504460D46002099
:100530000021092D11DDE068A5F10A0606EB46074A
:10054000072606FA07F18843A5F10A0606EB4606D8
:1005500003FA06F10843E0600CE0206905EB45076B
:10056000072606FA07F1884305EB450603FA06F16C
:1005700008432061072A0FDA606B561E06EB8607D8
:100580001F2606FA07F18843561E06EB860605FA73
:1005900006F10843606322E00D2A0FDA206BD61FB4
:1005A00006EB86071F2606FA07F18843D61F06EBDF
:1005B000860605FA06F10843206310E0E06AA2F11E
:1005C0000D0606EB86071F2606FA07F18843A2F1FF
:1005D0000D0606EB860605FA06F10843E062F0BD5B
:1005E000816841F008018160704721B1826842F45E
:1005F000A002826003E0826822F4A0028260704759
:10060000816841F004018160704700BFFEE721B1BD
:10061000026842F00102026004E002684FF6FE73D5
:100620001A400260704710B50022026847F6F07366
:100630009A430C6A8B6823430C6923434C69234318
:100640008C692343CC6923434C6A23438C6A23433C
:100650001A430260CB6843600B6883604B68C360D9
:1006600010BD704710B5082000F02AF8012805D108
:10067000032000F085F9082000F01CF810BD10B52B
:10068000102000F01DF8012805D1042000F078F9B1
:10069000102000F00FF810BD10B5202000F010F869
:1006A000012805D1052000F06BF9202000F002F8A8
:1006B00010BD0000014908607047000014040140AB
:1006C000014600200022074B1B6803EA0102054B8C
:1006D00014331B680B4013B10AB1012000E0002065
:1006E0007047000000040140002123498279002A5C
:1006F0003AD00A46126803689A430B461A600A1DEC
:10070000126803689A430B1D1A60027911440A6843
:1007100003681A430A60184A0832126803689A4349
:10072000154B08331A601A1D126803689A43124B5E
:100730000C331A604279102A0ED11A1F126803680E
:100740001A430D4B08331A601A1D126803681A43C6
:10075000094B0C331A600DE00749427911440A68CD
:1007600003681A430A6005E0027911440A680368C5
:100770009A430A60704700000004014030B500222F
:100780008B071C0F0F2303FA04F20B4B8C1053F84A
:1007900024309343084C8D1044F8253023468C10A8
:1007A00053F824308C07240F00FA04F42343024C3E
:1007B0008D1044F8253030BD080001402DE9F0418E
:1007C000024600250026002000230024002791F87F
:1007D00003C00CF00F0591F803C00CF0100CBCF135
:1007E000000F03D091F802C04CEA050591F800C053
:1007F000BCF1000F31D0146800202BE04FF0010C49
:100800000CFA00F3B1F800C00CEA03069E4220D1B6
:1008100083004FF00F0C0CFA03F7BC4305FA03FCFE
:100820004CEA040491F803C0BCF1280F06D14FF044
:10083000010C0CFA00FCC2F814C00AE091F803C0E5
:10084000BCF1480F05D14FF0010C0CFA00FCC2F8C6
:1008500010C0401C0828D1D31460B1F800C0BCF10E
:10086000FF0F34DD546800202EE000F1080C4FF03B
:10087000010808FA0CF3B1F800C00CEA03069E4226
:1008800021D183004FF00F0C0CFA03F7BC4305FA9B
:1008900003FC4CEA040491F803C0BCF1280F05D115
:1008A00000F1080C08FA0CF8C2F8148091F803C0A3
:1008B000BCF1480F07D100F1080C4FF0010808FA0D
:1008C0000CF8C2F81080401C0828CED35460BDE854
:1008D000F0810000F0B50A46002300240021002525
:1008E00000F00046B6F1004F02D11D4EF16901E063
:1008F0001B4E7168C0F3034583B200F44016B6F591
:10090000401F08D121F07061154E766826F07066A0
:10091000134F7E6012E000F48016B6F5801F06D1FA
:10092000032606FA05F4A14341F0706106E0460D86
:10093000360103FA06F6B14341F0706122B1460D6B
:10094000360103FA06F6314300F00046B6F1004FD7
:1009500002D1034EF16101E0014E7160F0BD000073
:10096000000001400246002093680B400BB10120BB
:1009700000E0002070470AB1016100E0416170476A
:1009800070B50646002400F061FD00BF04E00D488C
:10099000611C415C0155641C052CF8DB0A48017898
:1009A000084808384173032E0AD108210748FFF789
:1009B000D9FF054615B100F0E9FD01E000F0DCFDCE
:1009C00070BD00007C00002045000020000C0140AC
:1009D00000BFFEE708B50121042000F0D5F8102083
:1009E0008DF803004FF4E060ADF8000003208DF8AF
:1009F000020069460A48FFF7E1FE00224FF48071C9
:100A00000748FFF7B8FF00224FF400710448FFF7D2
:100A1000B2FF00224FF480610148FFF7ACFF08BD30
:100A20000008014000BFFEE7704708B54FF4A06022
:100A300000F072F809208DF8000001208DF8030005
:100A400000208DF801008DF80200684600F02CF8B7
:100A50000A208DF8000001208DF8030000208DF899
:100A600001008DF80200684600F01EF817208DF88E
:100A7000000001208DF8030000208DF801008DF8A2
:100A80000200684600F010F81C208DF800000120DC
:100A90008DF8030000208DF801008DF802006846F3
:100AA00000F002F808BD000070B5002100230F22FD
:100AB000C47804B3154C246804F4E064C4F5E0641D
:100AC000210AC1F10403CA40447804FA03F184788E
:100AD0001440214309010E4C0678A155047804F016
:100AE0001F050124AC4005786D11AD0005F1E0252E
:100AF000C5F8004109E0047804F01F050124AC406A
:100B0000044D0678761145F8264070BD0CED00E0E6
:100B100000E400E080E100E002490143024A116084
:100B2000704700000000FA050CED00E0704700007F
:100B300001460020034A506820F4404008435060BA
:100B4000704700000010024029B1064A5269024372
:100B5000044B5A6104E0034A52698243014B5A61D3
:100B6000704700000010024029B1064AD2690243D2
:100B7000044BDA6104E0034AD2698243014BDA6133
:100B8000704700000010024029B1064A92690243F2
:100B9000044B9A6104E0034A92698243014B9A61D3
:100BA000704700000010024030B5002100220024F0
:100BB00000232D4D6D6805F00C0121B1042905D0ED
:100BC000082923D105E0294D056022E0274D056065
:100BD0001FE0254D6D6805F47012234D6D6805F416
:100BE0008034022505EB92421CB9214D5543056026
:100BF0000BE01D4D6D6805F400351DB11C4D5543CE
:100C0000056002E0194D5543056002E0174D05608F
:100C100000BF00BF144D6D6805F0F0010909154DC6
:100C20006B5C0568DD4045600F4D6D6805F4E06163
:100C3000090A104D6B5C4568DD4085600A4D6D68A2
:100C400005F46051C90A0B4D6B5C4568DD40C56019
:100C5000054D6D6805F44041890B074D6B5CC56817
:100C6000B5FBF3F5056130BD0010024000127A00BB
:100C700000093D001400002024000020704710B53A
:100C800000F002F810BD00000CB5002001900090AB
:100C90003348006840F480303149086000BF304874
:100CA000006800F4003000900198401C019000980A
:100CB00018B90198B0F5A06FF1D12948006800F487
:100CC000003010B10120009001E000200090009859
:100CD000012843D12348006840F0100021490860F2
:100CE0000846006820F0030008600846006840F0ED
:100CF000020008601A484068194948600846406880
:100D000048600846406840F4806048600846406893
:100D100020F47C1048600846406840F4E8104860C1
:100D20000846006840F08070086000BF0C4800680A
:100D300000F000700028F9D00948406820F0030056
:100D4000074948600846406840F00200486000BF1C
:100D50000348406800F00C000828F9D10CBD0000E1
:100D6000001002400020024010B500F0D1FD10BD7F
:100D700010B5002100200022214B5B6803F00C011C
:100D800021B1042906D0082928D107E01D4B1E4CAB
:100D9000236027E01B4B1C4C236023E0184B5B684F
:100DA00003F47010164B5B6803F48032022303EBEC
:100DB000904022B9154B4343134C23600DE0104B78
:100DC0005B6803F4003323B1104B43430E4C2360A4
:100DD00003E00C4B43430C4C236003E0094B0A4CEB
:100DE000236000BF00BF064B5B68C3F30313084CCE
:100DF000E15C054B1B68CB40034C236010BD000039
:100E00000010024000127A000000002000093D009E
:100E10000400002010B51348006840F0010011499B
:100E2000086008464068104908400E494860084676
:100E300000680E4908400B4908600846006820F425
:100E4000802008600846406820F4FE0048604FF4A7
:100E50001F008860FFF713FF4FF00060044908602F
:100E600010BD0000001002400000FFF8FFFFF6FE7A
:100E700008ED00E010B50121880700F028F838B12E
:100E80000448008800F084FA0121880700F010F877
:100E900010BD00005200002021B1028842F0800203
:100EA000028004E002884FF67F731A400280704788
:100EB000CA430282704721B1028842F001020280D7
:100EC00004E002884FF6FE731A400280704730B586
:100ED0000246002000230024158A05EA01039589B3
:100EE00005EA010413B10CB1012000E0002030BD7F
:100EF0001AB183890B43838102E083898B43838109
:100F0000704701894FF6F8721140018170470A4617
:100F10000021018B4FF6F77319401143018370478D
:100F200070B5002400220023058C4FF6EF76354083
:100F30000584028C8388048B48F6FF752C404FF69D
:100F4000FF452C400D884FF6FF7606EA05252C4319
:100F50004FF6DF752A400D8906EA05152A434D88AC
:100F600006EA05152A43154DA84202D0144DA842A1
:100F70001DD14FF67F752A404D894FF6FF7606EA60
:100F800005152A434FF6BF752A408D8806EA0515D8
:100F90002A434FF6FF352B404FF2FF752B408D89CA
:100FA00006EA85052B43CD8906EA85052B43838018
:100FB0000483CD880587028470BD0000002C0140A9
:100FC0000034014070B5002400220023058C4FF648
:100FD000FF6635400584028C8388848B4FF68F75BD
:100FE0002C404FF6FC752C400D882C434FF6FF55D6
:100FF0002A400D894FF6FF7606EA05252A434D88DB
:1010000006EA05252A43154DA84202D0144DA842F0
:101010001DD14FF2FF752A404D894FF6FF7606EA43
:1010200005252A434FF6FF352A408D8806EA052517
:101030002A434EF6FF752B404DF6FF752B408D89E8
:1010400006EA05152B43CD8906EA05152B43838057
:101050008483CD888587028470BD0000002C014008
:101060000034014070B5002200230024058C4EF6A8
:10107000FF7635400584038C8488828B48F6FF75A3
:101080002A404FF6FF452A400D884FF6FF7606EAC4
:1010900005252A434DF6FF752B400D8906EA0535D7
:1010A0002B434D8806EA05352B430B4DA84202D051
:1010B0000A4DA84208D14BF6FF752C408D894FF69A
:1010C000FF7606EA85152C4384808283CD88A0F8BC
:1010D0004050038470BD0000002C014000340140EA
:1010E0000021018041808180C18001814181818115
:1010F000C1817047002202881D4B98420ED01D4BC3
:1011000098420BD0B0F1804F08D01B4B984205D0CD
:101110001A4B984202D01A4B984204D14FF68F7363
:101120001A404B881A43174B984207D0164B9842E7
:1011300004D04FF6FF431A40CB881A4302808B88B5
:1011400083850B8803850A4B98420BD0094B984244
:1011500008D00E4B984205D00D4B984202D00D4B53
:10116000984201D10B7A03860123838270470000E5
:10117000002C014000340140000400400008004001
:10118000000C0040001000400014004000400140EE
:10119000004401400048014010B540F22551094883
:1011A00000F031F801280CD1064800F0E7F80649B4
:1011B000086001200549087040F22551014800F0FF
:1011C00007F810BD00440040280000202C0000203B
:1011D00010B50022002340F66A14A14200D100BFDE
:1011E0000A1201249440A3B2DC43048010BD21B153
:1011F000828942F40052828104E082894DF6FF73B5
:101200001A408281704770B50246002400230025F1
:10121000002040F66A16B14200D100BFC1F342156A
:1012200001F01F03012606FA03F3012D02D196896E
:10123000334006E0022D02D1168A334001E0968A3F
:1012400033400C12012606FA04F41688344013B118
:101250000CB1012000E0002070BDF0B50346002471
:1012600000260025002040F66A17B94200D100BFD1
:101270001846C1F3421401F01F06012707FA06F5CC
:10128000012C01D10C3004E0022C01D1103000E01F
:1012900014301AB107682F43076002E00768AF43B4
:1012A0000760F0BD2DE9F04786B005460E460024E4
:1012B000A24600BFA1460027B08900B100BF2F465B
:1012C0002C8A4CF6FF700440F08804432C82AC89D1
:1012D0004EF6F3100440B088318908437189084301
:1012E0000443AC81AC8A4FF6FF400440B08904430C
:1012F000AC8201A8FFF758FC1F48874202D1DDF8F5
:1013000010A001E0DDF80CA0A88900F4004040B175
:101310000AEBCA0000EB0A1031684900B0FBF1F893
:1013200007E00AEBCA0000EB0A1031688900B0FB45
:10133000F1F86420B8FBF0F004012009642101FBFE
:101340001089A88900F4004040B1322000EBC900A8
:10135000B0FBF1F000F00700044308E0322000EB9E
:1013600009106421B0FBF1F000F00F0004432C8160
:1013700006B0BDE8F08700000038014001468888CB
:10138000C0F30800704700BFFEE700BF70470000D1
:101390002DE9F041074600250024002600F080F8E2
:1013A0002749087008460078012803DB08460078C2
:1013B000062801DDBDE8F0812148007800F05CF8E6
:1013C00005462048007860B91F480078401CC6B226
:1013D000062E00DD0126681CC4B2062C0BDD01249C
:1013E00009E019480078401EC6B206B90626681EF4
:1013F000C4B204B90624072C1DD2DFE804F01C0493
:10140000080C10141800384600F0C4F913E03846F0
:1014100000F0CCF90FE0384600F0D4F90BE0384684
:1014200000F0DCF907E0384600F0E4F903E0384664
:1014300000F0ECF900BF00BF0348047000BFB9E73B
:1014400045000020440000204300002002480068BE
:10145000401C0149086070474800002000BF054A51
:10146000128802F04002002AF9D0C2B2014B1B1DC3
:101470001A807047004400400246002100BF08E087
:101480000648405C904202D1481CC0B27047481CDC
:10149000C1B20629F4DB0020F8E700003C00002080
:1014A00010B5002408210C48FFF75CFA012801D18F
:1014B00044F0040410210848FFF754FA012801D130
:1014C00044F0020420210448FFF74CFA012801D11E
:1014D00044F00104204610BD000C01400EB501216E
:1014E0000920FFF751FB01211548FFF7F3F94820C8
:1014F0008DF80B003820ADF8080003208DF80A00A5
:1015000002A91048FFF75AF903210120FFF736F925
:1015100004210120FFF732F905210120FFF72EF900
:101520003820009001208DF8060000208DF804007E
:1015300010208DF805006846FFF7D6F80EBD0000B4
:1015400000023000000C014008B501210820FFF71F
:101550001BFB10208DF803000002ADF800000320F3
:101560008DF8020069460348FFF728F900F00EF8ED
:1015700008BD0000000C014010B501221103024813
:10158000FFF7F9F910BD0000000C014010B5002272
:101590004FF480510148FFF7EEF910BD000C0140F7
:1015A00000F05EF900F03EF92FE0042004282BD172
:1015B000164800881649088008460088B0F5966FDE
:1015C00002DA4FF4966008801148008840F6B8317E
:1015D000884202DD08460E4908800D480088A0F5C3
:1015E00096608000092190FBF1F00A4908800846C6
:1015F0000088B0F5487F02DD4FF448700880054848
:1016000000880549088000BF00BFCEE734000020F5
:1016100070000020500000205200002010B5044649
:1016200000200C490880091F08800A48001D04801A
:10163000002281150848FFF79EF900224FF48061CF
:101640000548FFF798F9012251020348FFF793F983
:1016500010BD00003C0400400008014010B50446E5
:1016600000200C490880091F08800A48001D0480DA
:10167000002281150848FFF77EF900224FF400711F
:101680000548FFF778F9012291020348FFF773F943
:1016900010BD00003C0400400008014010B50446A5
:1016A00000200C4908800B4908390880081D048077
:1016B000002241150848FFF75EF900224FF48061CF
:1016C0000548FFF758F9012211020348FFF753F9C3
:1016D00010BD0000400400400008014010B5044661
:1016E00000200C4908800B4908390880081D048037
:1016F000002281150848FFF73EF900224FF40071DF
:101700000548FFF738F9012291020348FFF733F942
:1017100010BD0000400400400008014010B5044620
:1017200000200B490880091F0880081F0480002240
:1017300041150848FFF71FF900224FF48061054862
:10174000FFF719F9012211020248FFF714F910BD41
:10175000400400400008014010B5044600200B4939
:101760000880091F0880081F04800022811508488E
:10177000FFF701F9012251020548FFF7FCF80022AA
:101780004FF480610248FFF7F6F810BD40040040B6
:101790000008014010B504460120034908702046A6
:1017A000FFF73CFF10BD00004200002010B50446CA
:1017B0000220034908702046FFF750FF10BD0000CB
:1017C0004200002010B5044603200349087020465B
:1017D000FFF784FF10BD00004200002010B5044652
:1017E0000420034908702046FFF758FF10BD000091
:1017F0004200002010B50446052003490870204629
:10180000FFF78CFF10BD00004200002010B5044619
:101810000620034908702046FFF79EFF10BD000018
:101820004200002010B500200B490880091F0880E5
:10183000091F0880002289150848FFF79CF800223C
:101840004FF400710548FFF796F800224FF48061CD
:101850000248FFF790F810BD400400400008014026
:1018600070B5FFF7D7FAFFF783FA214800684FF405
:101870007A72B0FBF2F1B1F1807F00D31DE021F06C
:101880007F40401E4FF0E022506150170F22002889
:1018900007DA13071D0E174B00F00F04241F1D5508
:1018A00003E013071C0E144B1C5400BF00204FF024
:1018B000E02290610720106100BFFFF7B6F84FF4F7
:1018C000165000F04FF9FFF73FFEFEF74DFDFFF712
:1018D00005FE00F0AFF800F0D3F8FFF77BF80E211B
:1018E0000648FEF77FFC06A0FEF770FC70BD000006
:1018F0000000002018ED00E000E400E0740000208B
:10190000696E69742066696E69736865640A0000AF
:1019100010B53E4801680068401C3C4A1060B1F5B3
:101920007A7F09D300201146086039480088394978
:101930008880002036490860374801680068401CEC
:10194000354A1060B1F5967F03D301213348FEF785
:101950004CFE3348008843F69821884213DD314815
:101960000078F8B930480068401C2F4908600846E4
:10197000006864281AD901202A49087041F2883089
:101980002949086012E02748007818B90020264944
:1019900008600BE02448006828B123480068401E16
:1019A0002149086002E000201E4908701C48008898
:1019B000B0F5FA5F15DD1D48007810BB1C480088A3
:1019C000401C1B4908800846008841F28831884243
:1019D0001BDD0120154908704FF47A701449088006
:1019E00013E01248007818B90020114908800CE073
:1019F0000F480088002805DD0D480088401E0C496E
:101A0000088002E000200949087010BD5C00002039
:101A100054000020740000206000002000240140D9
:101A200058000020680000206C00002064000020A6
:101A3000660000200EB501210846FFF795F84FF02B
:101A40008040FFF75EFA0020ADF80600ADF8020016
:101A50006320ADF804004720ADF8000000208DF8A9
:101A6000080069464FF08040FFF744FB0122114611
:101A70009007FFF73DFA01218807FFF71CFA0EBD1A
:101A800000B589B001210220FFF76EF801210C207A
:101A9000FFF77AF818208DF8230003208DF8220034
:101AA000ADF8200008A92C48FEF788FE8020ADF88C
:101AB000200008A92948FEF781FE2948FFF721FAEE
:101AC0000020ADF81A00ADF8160040F2E930ADF88C
:101AD00018000220ADF8140000208DF81C0005A9A4
:101AE0001F48FFF707FB01A8FFF7FAFA6020ADF8DF
:101AF00004000020ADF80C000120ADF80600002025
:101B0000ADF80A0001A91648FFF70AFA01A914481E
:101B1000FFF758FA01A91248FFF7A4FA002110486C
:101B2000FFF7F5F900210E48FFF7F1F900210C4805
:101B3000FFF7EDF901210A48FFF7AEF90121084846
:101B4000FFF7AAF901210648FFF7A6F90121044889
:101B5000FFF7B1F909B000BD000C014000080140D9
:101B60000004004010B586B0044601214804FEF789
:101B7000FBFF01210420FFF707F818208DF817005C
:101B80000420ADF8140003208DF8160005A91748AD
:101B9000FEF714FE48208DF817000820ADF8140059
:101BA00003208DF8160005A91048FEF707FE0194E2
:101BB0000020ADF810000C20ADF80E000020ADF8AC
:101BC0000C00ADF80A00ADF8080001A90848FFF7BD
:101BD00069FB012240F225510548FFF73EFB012138
:101BE0000348FFF704FB06B010BD000000080140E9
:101BF00000440040141C0008000000207400000095
:101C000028010008881C00087400002074060000E9
:101C10004401000800A24A04000000000000000087
:101C20000102030406070809000000000102030482
:101C30000102030406070809020406080000000068
:101C40000000000000000000000000000000000094
:101C5000040501030206000000000000000000006F
:101C60000000140000000000000000000000000060
:101C70000000000000000000000000000000000064
:081C800000000000000000005C
:04000005080000ED02
:00000001FF
